:020000042001D9
:100000009711FF5F938181289702000093828205F8
:100010007390523093020000638402007350107C8E
:100020001701FFDF130101FE9700FFDF938080FDC2
:10003000638300008290732540F181450146812051
:100040009700FFDF938000FC63830000829097029B
:1000500000009382C2007390523003230000F5BF6A
:10006000F322203473231034F3233034D5BF82803D
:10007000411122C6000801003244410182800684F9
:100080009711FF5F93818120138181CE81421303F9
:1000900000406385A2001A918502E5BF137101FF3C
:1000A000930200006319550897820000938202C2F0
:1000B0001703FF5F130303F593838184638C62004E
:1000C000635A730003A5020091022320A3001103C9
:1000D000E34A73FE97820000938242BF1703FFE753
:1000E000130343F29703FFE79383C3F1638C62002A
:1000F000635A730003A5020091022320A300110399
:10010000E34A73FE0F1000001713FF5F1303839C75
:100110009383818E63577300232003001103E34D03
:1001200073FE11C20296176500001305C534EF6017
:100130002030EF6080372D3FF32710303707010064
:1001400013078702F98F89CBF32700300967D98F0E
:1001500073900730735030000545978500009385F4
:10016000A5A417860000130666A43120EF60A02D19
:10017000A28082808280411106C2F32240F11303E3
:1001800000006385620073005010F5BF952892400F
:040190004101828027
:10020000797106D622D40018232604FEB777012080
:10021000138507DAEF0070168545E1671385076AD5
:10022000D9262326A4FE8327C4FE89CB8325C4FEBA
:10023000B7770120138507DBEF005002B777012065
:10024000138547DDEF0070138546B77701201386CD
:1002500007E0A9452145ED218546B77701201386A2
:10026000C7E0A9452145E9298546B77701201386CE
:1002700087E1A9452145E9218546B7770120138605
:1002800047E2A94521456D29B7770120138507E38A
:10029000EF00B00E8546B77701201386C7E5E1452C
:1002A000214579292326A4FE8325C4FEB7770120A2
:1002B000138587E7EF00807AB7770120138507E37E
:1002C000EF00B00B8546B77701201386C7E5E145FF
:1002D0002145BD212326A4FE8325C4FEB777012036
:1002E000138587E7EF008077B7770120138507E351
:1002F000EF00B0088546B77701201386C7E5E145D2
:1003000021453D292326A4FE8325C4FEB77701207D
:10031000138587E7EF008074B7770120138587E99D
:10032000EF00B005930704FD314681453E85592510
:10033000930704FD85463E86994521459923AA8762
:1003400081CBB7770120138547ECEF00100309A894
:10035000930704FDBE85B7770120138507EEFD2DB9
:10036000B7770120138587EEEF003001930704FD76
:10037000314681453E853D2D930704FD85463E86E9
:1003800099452145FD29AA8781CBB777012013859F
:1003900047ECEF00807E09A8930704FDBE85B77780
:1003A0000120138507EE5D2DB7770120138547F1F6
:1003B000EF00A07C930704FD314681453E85DD2B8F
:1003C000930704FD85463E86994521455D29AA8708
:1003D00081CBB7770120138547ECEF00007A09A89D
:1003E000930704FDBE85B7770120138507EEBD2571
:1003F0000145EF006079AA862E8785450146B387BF
:10040000B6003E853335D5003308C70033070501F4
:100410003A882320F4FE232204FF01000145EF0067
:10042000A076AA872E88032744FEC286E3C8E6FE8C
:10043000032744FEC2866316D700032704FEE3EFBA
:10044000E7FC01A0797106D622D40018232EA4FC63
:10045000232CB4FCB287A30BF4FC232604FEEF503C
:10046000B026AA862E8785450146B387B6003E850D
:100470003335D5003308C700330705013A882320F8
:10048000F4FE232204FF35A0EF501024AA872E8803
:10049000032744FEC286634CD700032744FEC2866E
:1004A0006319D700032704FE6363F70019A0FD5703
:1004B000C9A88327C4FDC10783C7070093F7F70FB7
:1004C000898BF9F3832784FD93F7F70F860713F7DA
:1004D000F70F834774FD858B93F7F70F8326C4FDD1
:1004E000B106D98F93F7F70F2380F6008327C4FD59
:1004F000C1073E87930700F92300F700EF50D01C97
:10050000AA862E8785450146B387B6003E853335DA
:10051000D5003308C700330705013A882320F4FECD
:10052000232204FF35A0EF50301AAA872E88032714
:1005300044FEC286634CD700032744FEC28663197B
:10054000D700032704FE6363F70019A0FD5715A821
:100550008327C4FDC10783C7070093F7F70F898B73
:10056000F9F38327C4FDC10783C7070093F7F70F8B
:10057000E207E18763D50700FD572326F4FE8327B2
:10058000C4FE3E85B250225445618280797122D6E4
:100590000018232EA4FC232CB4FCB727011023261B
:1005A000F4FE8327C4FE9387C7039C430327C4FD3F
:1005B0001347F7FFBA860327C4FE1307C703F58F57
:1005C0001CC38327C4FE938787039843832784FD36
:1005D0008326C4FE93868603D98F9CC281473E85BD
:1005E000325445618280797106D622D40018232EB8
:1005F000A4FC232CB4FCFD572326F4FEB71700807F
:1006000023A807AC232404FE8D672322F4FE832550
:1006100044FE032584FE9D3F032784FD8547631A1E
:10062000F7000325C4FD0520AA8799E7232604FEC9
:1006300021A0FD572326F4FE8327C4FE3E85B25039
:10064000225445618280397106DE22DC8000232637
:10065000A4FC232404FEB76701102322F4FEFD57F7
:100660002326F4FEB7170080938787A72324F4FE80
:10067000832784FEC5CF832784FE9C439C430325A8
:1006800084FE82972320A4FE832604FE0327C4FC55
:10069000BA878A07BA97B3D7F602FD17232EF4FC60
:1006A0000327C4FDC1676356F7088327C4FD63C2EF
:1006B0000708832744FEA10783C7070093F7F70FB6
:1006C000032744FE210793F7F70793F7F70F23005B
:1006D000F700832744FE0327C4FD1377F70F238019
:1006E000E7008327C4FD93D68740832744FE910704
:1006F0003E8793F7F60F2300F700832744FEA107F8
:1007000083C7070093F7F70F032744FE210793E7FA
:1007100007F893F7F70F2300F700B71700800327B8
:10072000C4FC23A8E7AC232604FE21A0FD57232602
:10073000F4FE8327C4FE3E85F2506254216182801C
:10074000397106DE22DC80002326A4FC2324B4FCBD
:100750002322C4FC2320D4FCB76701102320F4FE1D
:1007600001468325C4FC032504FEE9392324A4FEA5
:10077000832784FE63900710C147A307F4FE23225A
:1007800004FEDDA0032744FC832744FEBA97032719
:1007900004FE310783C707002300F700832784FC8A
:1007A000FD17032744FE6312F702832704FC93F727
:1007B000F70F9A0793F7F70F93F7070413F7F70F5D
:1007C0008347F4FED98FA307F4FE832704FEC107F5
:1007D0003E878347F4FE2300F700EF50E06EAA86C1
:1007E0002E8785450146B387B6003E853335D50053
:1007F0003308C700330705013A88232CF4FC232E65
:1008000004FD35A0EF50406CAA872E880327C4FD55
:10081000C286634CD7000327C4FDC2866319D70084
:10082000032784FD6363F70019A0FD57B1A0832758
:1008300004FEC10783C7070093F7F70F898BF9F30D
:10084000832704FEC10783C7070093F7F70FE2076A
:10085000E18763D60700FD572324F4FE21A88327F0
:1008600044FE85072322F4FE032744FE832784FCED
:10087000E36AF7F0832784FE3E85F25062542161DB
:100880008280397106DE22DC80002326A4FC23242A
:10089000B4FC2322C4FC2320D4FCB767011023221C
:1008A000F4FE05468325C4FC032544FE613E232057
:1008B000A4FE832704FEE5EB93070002A307F4FEE2
:1008C000232404FED9A8832784FCFD17032784FE74
:1008D0006316F702832704FC93F7F70F9A0793F741
:1008E000F70F93F7070413F7F70F8347F4FED98F39
:1008F00093F7F70F93E78700A307F4FE832744FEDF
:10090000C1073E878347F4FE2300F700EF50C05B2A
:10091000AA862E8785450146B387B6003E853335C6
:10092000D5003308C700330705013A88232CF4FCAF
:10093000232E04FD35A0EF502059AA872E880327C7
:10094000C4FDC286634CD7000327C4FDC286631969
:10095000D700032784FD6363F70019A0FD57B1A0FA
:10096000832744FEC10783C7070093F7F70F898BDE
:10097000F9F3832744FEB107BE86032744FC83278F
:1009800084FEBA9703C706001377F70F2380E700AA
:10099000832784FE85072324F4FE032784FE832710
:1009A00084FCE362F7F2832704FE3E85F250625432
:1009B000216182803D432A876373C3029377F700E6
:1009C000BDEFADE5937606FF3D8ABA960CC34CC3E6
:1009D0000CC74CC74107E36BD7FE11E28280B30618
:1009E000C3408A069702000096966780A6002307F8
:1009F000B700A306B7002306B700A305B700230579
:100A0000B700A304B7002304B700A303B700230370
:100A1000B700A302B7002302B700A301B700230168
:100A2000B700A300B7002300B700828093F5F50F4D
:100A300093968500D58D93960501D58D61B79396D4
:100A400027009702000096968682E78086FA9680B5
:100A5000C1171D8F3E96E374C3F8A5B739713EDA0E
:100A60002ED232D436D63AD842DC46DE9707FF5F24
:100A70009387070222CC804326CA06CEAA8409C4E3
:100A80001C4C99E32285B5230C44541026862285FC
:100A900036C6EF00D01EF2406244D244216182800B
:100AA000011126CA4AC806CE22CC4EC652C4AA8418
:100AB0002E8901C51C4D91E32D2B9C4C804499E35C
:100AC0002685052B976700009387C749631CF402AE
:100AD000C0408357C400A18BB1C71C48A1C7FD59B2
:100AE000294A1C4483450900FD17B1E91CC463DE93
:100AF00007062286A9452685D920FD576308F502F9
:100B0000294535A0976700009387C7476314F40011
:100B10008044C1B7976700009387C742E31BF4FA8C
:100B2000C04445BFA2852685992A55D97D55F240F6
:100B30006244D2444249B249224A056182801CC4BF
:100B4000050963D70700184C63CBE70063894501AB
:100B50001C401387170018C02380B70059B722869E
:100B60002685B128E31F35F7D1B71C40138717003E
:100B700018C029472380E70061B79707FF5F938775
:100B800027F1AA85884329BF01119707FF5F938743
:100B900027F022CC2A84884301468A8506CEE923A1
:100BA000635605007D57FD573AC03EC20245924547
:100BB00019C008C04CC0F240624405618280011136
:100BC00022CC26CA4AC806CE4EC6AA842E893284B2
:100BD00001C51C4D91E33129976700009387873841
:100BE0006319F406C0401C4C1CC48357C400A18B7D
:100BF000C9C31C48BDCF1C4808409379F90F13792D
:100C0000F90F1D8D5C486346F500A2852685E92411
:100C10002DE51C440505FD171CC41C401387170057
:100C200018C0238037015C486389A7008357C4003C
:100C3000858B81CBA9476316F900A2852685692C8F
:100C40000DEDF24062444A85D2444249B249056101
:100C50008280976700009387E7326314F400804432
:100C600059B7976700009387E72DE31EF4F6C04459
:100C70009DBFA285268521203DDD7D59D9B7411133
:100C80009707FF5F9387C7E026C2844322C44AC008
:100C900006C62A892E8489C49C4C99E32685912E08
:100CA000976700009387072C631CF402C04003176A
:100CB000C40093170701C18393F68700B5EE93F63E
:100CC00007019DEEA5472320F900136707042316AB
:100CD000E4007D55B24022449244024941018280A1
:100CE000976700009387072A6314F4008044C1B714
:100CF0009767000093870725E31BF4FAC04445BFBC
:100D0000918B8DC74C5889C9930744046384F500BF
:100D10004A859D2B232A04028357C4002322040002
:100D200093F7B7FD2316F4001C481CC08357C4007A
:100D300093E787002316F4001C4881EF8357C40013
:100D40001307002093F707286385E700A2854A85EB
:100D500071298357C40013F7170005C75C48232483
:100D60000400B307F0401CCC1C480145A5F78317CD
:100D7000C40013F7070839DF93E707042316F400CC
:100D800089BF898B014791E3584818C4F1BF83D7C5
:100D9000C500011122CC26CA06CE4AC84EC613F79A
:100DA0008700AA842E8465E7D8416347E000B841F4
:100DB0006344E0000145C1A058546DDF03A904005D
:100DC0009396370123A0040063DE06066848835724
:100DD000C400918B99C75C401D8D5C5899C33C4001
:100DE0001D8D5C540C502A86814626858297FD57BE
:100DF0000357C400631DF5009440F54763E4D7082A
:100E0000B70740208507B3D7D700858BA5CF1C48EF
:100E1000232204001CC09317370163D80700FD5735
:100E20006314F5009C4091E368C84C5823A024014A
:100E3000D1D1930744046384F5002685B121232A88
:100E400004028DBF0C508546014626850297FD574A
:100E5000E31FF5F69C40A5DF75476385E70059471A
:100E60006395E70023A02401B1B78357C40093E73B
:100E700007042316F400F2406244D2444249B249C6
:100E800005618280136707042316E400EDB783A988
:100E90000501E38109F203A905008D8B23A035012B
:100EA00033093941014791E3D84918C4E35420F18B
:100EB0001C540C50CA864E8626858297634AA00031
:100EC0008357C4007D5593E707042316F40065B7E4
:100ED000AA993309A940D9BF9C49B9CF011122CCA5
:100EE00006CE2A8411C51C4D81E72EC61922B245B3
:100EF0009767000093870707639BF5004C40839733
:100F0000C50095C722856244F240056149B59767DF
:100F10000000938727076394F5000C44CDB79767CB
:100F2000000093872702E39CF5FC4C44C9BFF240C4
:100F3000624401450561828001458280411122C4DD
:100F400006C62A842316B5002317C50023200500F2
:100F5000232205002324050023220506232805005B
:100F6000232A0500232C0500214681451305C505CC
:100F70009134970700009387E77C5CD097070000C7
:100F80009387477F1CD497170000938787835CD48F
:100F9000971700009387478600D01CD8B2402244A0
:100FA0004101828097050000938545F381AA411194
:100FB00026C2130680069384F5FFB384C4024AC098
:100FC0002E8922C406C693854407AD262A8419C9F2
:100FD0002320050023222501310508C41386840639
:100FE0008145C93A2285B2402244924402494101D6
:100FF00082801C4DBDE3411106C622C49707000044
:10100000938787FA1CD59707FF5F9387A7A89C4310
:101010002324050423260504232805046314F5006E
:1010200085471CCD2A841D2848C02285052808C470
:1010300022852D2048C44840014691450137084487
:101040000546A545E53D48440946C945C53D854792
:101050001CCCB2402244410182808280411197071A
:10106000FF5F938727A326C284434AC006C69C4CD1
:1010700022C42A8999E32685AD3F93848404804461
:10108000DC40FD1763D607009C40B9CF8440C5BF44
:101090000317C40039E7C1778507232204062320FC
:1010A000040023220400232404005CC42328040039
:1010B000232A0400232C0400214681451305C4057E
:1010C000EFF05F8F232A0402232C0402232404045C
:1010D000232604042285B24022449244024941015D
:1010E00082801304840671BF91454A85C93588C042
:1010F0002A8449FDB1472320F900E9BF797122D440
:101100004AD052CC56CA5AC85EC606D626D24ECE51
:101110002A8AAE8A130485040149054BFD5B09EC5C
:10112000B25022544A8592540259F249624AD24A34
:10113000424BB24B45618280044483294400FD192F
:1011400063D409000040E1BF83D7C400637BFB0088
:101150008397E40063877701A6855285829A336975
:10116000A90093848406E1BF411122C42A842E85FC
:10117000B28523A2018E06C6EF504009FD576317C2
:10118000F5009387418E9C4391C31CC0B24022441A
:10119000410182801971A6DAAE848395E500A2DC54
:1011A00086DE328463DC050083D7C40023A00600FA
:1011B00093F707089DE39307004015A0300836C653
:1011C000492DB246E34205FE7247BD67F98F797734
:1011D000BA9793B717009CC2F9BF930700041CC0CD
:1011E000F6506654D65401450961828083D7C50004
:1011F000011122CC06CE26CA4AC8898B2E8489CFFB
:10120000930774041CC01CC885475CC8F240624444
:10121000D24442490561828074003000AA849D3F17
:10122000A2452A892685392201ED8317C40013F7C8
:10123000072069FFF19B93E727002316F400C9B745
:1012400097070000938747D69CD48357C40008C0F3
:1012500008C893E707082316F400A2475CC8B24702
:1012600089CF8315E4002685192D01C98357C40051
:10127000F19B93E717002316F4008357C4003369EA
:10128000F9002316240159B7CDC583A7C5FF411125
:1012900022C406C626C21384C5FF63D307003E944A
:1012A000AA84B9259707FF5F938707839C4389EF3B
:1012B000232204009707FF5F23A087822244B240C5
:1012C00026859244410135A5637EF400144033071E
:1012D000D4006396E7009843DC43369718C05CC09F
:1012E000D1BFBA87D84319C3E37DE4FE9443338664
:1012F000D700631F86001040B29694C33386D70090
:10130000E31EC7FA10435843B29694C3D8C37DB7BF
:101310006375C400B1479CC055B71040B306C40004
:101320006316D70014435843B29614C058C0C0C3C4
:1013300071B78280011126CA93843500F19806CED8
:1013400022CC4AC84EC6A104B14763F7F404B144A5
:1013500063E6B4042A89692B97F7FE5F9387C77702
:1013600098433A8431E497F7FE5F938727779C434D
:1013700081EB81454A85452697F7FE5F23A0A77636
:10138000A6854A85492EFD5963193507B1472320A3
:10139000F9004A85B92B29A0E3DC04FAB1471CC146
:1013A0000145F2406244D2444249B249056182801B
:1013B0001C40858F63C00704AD4663F6F6001CC071
:1013C0003E9404C001A85C406314870217F7FE5FD7
:1013D0002324F7704A85312B1305B400930744008A
:1013E00061993307F54055DF3A94898F1CC055BF8A
:1013F0005CC3CDB722874040B5B713043500719860
:10140000E30185FCB305A4404A853126E31B35FB87
:10141000B5BF1C46FD171CC663DA0700184E63C52E
:10142000E700A9476394F5006FF06FF91C422E8521
:101430001387170018C22380B7008280011122CCC5
:1014400026CA4AC84EC652C406CE2A89AE893284FC
:10145000B304D6007D5A63149400014509A883455E
:1014600004004E864A8575370504E31645FFF240B1
:101470006244D2444249B249224A056182803571B0
:1014800022CD26CB4AC94EC706CF52C556C35AC134
:10149000DEDEE2DCE6DAAA89AE843289368401C572
:1014A0001C4D91E3B936976700009387A7AB639B08
:1014B000F40C83A4490083D7C400A18BF5C79C48D2
:1014C000E5C793070002A304F1029307000302D2C9
:1014D0002305F10222C6930B5002976A0000938AFB
:1014E0006AAC054C294B4A848347040099C3639036
:1014F000770FB30C2441638D0C00E6864A86A685DF
:101500004E852D3FFD576306F51E9256E69636D260
:1015100083470400638F071CFD571309140002C89A
:1015200002CE3ECA02CCA309010482D4834509003D
:10153000154656854D2613041900C24759E913F77D
:10154000070109C713070002A309E10413F7870085
:1015500009C71307B002A309E10483460900130772
:10156000A0026380E608F2474A8481462546034785
:10157000040093051400130707FD6379E60AB5CA52
:101580003ECE85A8976700009387C79F6395F400B8
:1015900083A489000DB7976700009387A79AE39CFF
:1015A000F4F083A4C90001BFA6854E85EFF02FEDAE
:1015B00009D97D55FA406A44DA444A49BA492A4A67
:1015C0009A4A0A4BF65B665CD65C0D618280050424
:1015D00021BF330555413315AC00C98F3EC8228960
:1015E000B1B7324793064700184336C6634907022E
:1015F0003ACE034704009307E002631FF704034752
:1016000014009307A002631BF702B2470904138773
:1016100047009C433AC663C107023ECA35A8330758
:10162000E04093E727003ACE3EC8E1B7B3876703AF
:1016300085462E84BA9725BFFD57C5B7050402CA53
:10164000814681472546034704009305140013078C
:1016500007FD6376E606F1F2834504000D46176543
:1016600000001305A594852C11CD97670000938782
:10167000E7931D8D93070004B397A7004245050427
:101680005D8D2AC8834504001946176500001305BF
:101690002592130914002304B102352C3DC197F79C
:1016A000FEDF9387279695E74247B24713770710E7
:1016B00009CF91073EC69257D2973ED22DB5B38738
:1016C000670385462E84BA97BDBF9D07E19BA1079E
:1016D000D5B7780097060000938686D626860C0834
:1016E0004E8597000000E7000000FD572A8AE314AA
:1016F000F5FC83D7C40093F70704E39C07EA12556F
:1017000055BD780097060000938686D326860C0880
:101710004E85FD24D9BF411122C42A842E8523A2DF
:10172000018E06C6EF403044FD576317F5009387DE
:10173000418E9C4391C31CC0B2402244410182802F
:10174000411122C42E848395E50006C6992B634976
:1017500005007C48AA977CC8B2402244410182809F
:101760008357C4007D777D17F98F2316F400EDB7FA
:1017700083D7C500011122CC26CA4AC84EC606CE60
:1017800093F70710AA842E843289B68991C783956E
:10179000E50089460146092A8357C4007D777D17F5
:1017A000F98F2316F4008315E4006244F240CE86DC
:1017B0004A86B24942492685D24405613DA8411175
:1017C00022C42E848395E50006C6F928FD570357E9
:1017D000C400631BF500FD77FD17F98F2316F40095
:1017E000B2402244410182808567D98F2316F400DC
:1017F00068C8FDB78395E50005A8411122C42A8475
:101800002E85B285368623A2018E06C6EF40503B58
:10181000FD576317F5009387418E9C4391C31CC00D
:10182000B240224441018280411122C42A842E8583
:1018300023A2018E06C6EF40F018FD576317F5008E
:101840009387418E9C4391C31CC0B2402244410106
:101850008280411122C42A842E85B28523A2018E62
:1018600006C6EF405018FD576317F5009387418E69
:101870009C4391C31CC0B24022444101828041116B
:1018800022C42A842E8523A2018E06C6EF4070262C
:10189000FD576317F5009387418E9C4391C31CC08D
:1018A000B240224441018280411122C42A842E8503
:1018B000B285368623A2018E06C6EF409025FD57DD
:1018C0006317F5009387418E9C4391C31CC0B240BF
:1018D00022444101828093F5F50F2A966314C500D6
:1018E0000145828083470500E38DB7FE0505FDB7FE
:1018F00082808280797156CA9C49BA8A984522D4DE
:1019000026D24ECE52CC06D64AD05AC85EC6AA8936
:101910002E84B284368A63D3E700BA879CC003471B
:10192000340419C385079CC01C4093F7070281C784
:101930009C4089079CC00329040013796900631A3D
:101940000900130B9401FD5B5C449840998F634C34
:10195000F9041C408346340493F70702B336D000E1
:10196000A5EB13063404D2854E85829AFD57630396
:10197000F5041C4011469840998B54448144639768
:10198000C700B384E64063D3040081441C44184874
:101990006354F700998FBE94014969047D5B639895
:1019A0002405014509A885465A86D2854E85829A26
:1019B000631E75017D55B250225492540259F2496A
:1019C000624AD24A424BB24B456182800509ADBFA3
:1019D0003307D40013060003A301C70403475404CC
:1019E00093871600A2978906A381E7049DBF8546C9
:1019F0002286D2854E85829AE30E65FB050945B79E
:101A0000797122D426D24AD04ECE06D652CC56CAAE
:101A10005AC8B68983C685019307E0063289AA842D
:101A20002E84138635046380F61E63E2D70693077F
:101A300030066382F60A63EDD700638A061E9307B9
:101A400080056386F616930A24042301D40469A84A
:101A5000930740066386F60093079006E395F6FE2B
:101A60001C40084393F6070893054500C1C21C417A
:101A70000CC363D807001307D002B307F040A301DB
:101A8000E4049756000093862653294765A09307E0
:101A900030076382F61A63EFD7009307F006638F6F
:101AA000F60493070007E390F6FA9C4193E70702D8
:101AB0009CC109A8930750076382F6049307800727
:101AC000E393F6F893078007A302F4049756000007
:101AD0009386C64FDDA01C43938A25049386470056
:101AE0009C4314C32381F5048547ADA293F60704F4
:101AF0001C410CC3BDDEC207C187A5BF0C401C43FF
:101B000013F80508138547006305080008C39C43C4
:101B100039A093F5050408C3FDD983D7070013073F
:101B2000F006638AE60C975600009386E64829473C
:101B3000A30104044C400CC463C5050008406D9922
:101B400008C099E3B28A91CDB28AB3F5E702FD1AD3
:101B5000B69583C505002380BA00B3D5E70263F2CA
:101B6000E70AA147631EF7001C40858B91CB5840C4
:101B70001C4863C7E70093070003A38FFAFEFD1A12
:101B80003306564110C84E87CA867000A285268546
:101B900095337D5A6314450D7D55B25022549254AD
:101BA0000259F249624AD24A424B45618280A3827D
:101BB000D50497560000938626400C40084313F83E
:101BC00005081C4111056300080208C313F715003E
:101BD00001C793E505020CC04147B9FB0C4093F5E2
:101BE000F5FD0CC0B1B713F8050408C3E30008FE07
:101BF000C207C183E1BF975600009386E63B2147A9
:101C000005BFAE8799B794411C43CC4913F8060829
:101C1000138547006306080008C39C438CC301A8D2
:101C200008C393F606049C43F5DA2390B7002328F3
:101C30000400B28A89BF1C43D04181459386470086
:101C400014C383AA07005685793101C53305554170
:101C500048C05C401CC8A301040435B7144856862C
:101C6000CA8526858299E30945F31C40898B8DE757
:101C7000B2474844E353F5F23E8505B7854656869C
:101C8000CA8526858299E30965F1050A5C443247D5
:101C9000998FE345FAFEE9BF014A930A94017D5BFF
:101CA000F5B7411122C42A842E85B285368623A237
:101CB000018E06C6EF408068FD576317F5009387D5
:101CC000418E9C4391C31CC0B2402244410182809A
:101CD000011122CE00102326A4FE0327C4FEB7174D
:101CE0000080938747A96315F700B707000211A08A
:101CF00081473E85724405618280011122CE001029
:101D00002326A4FE0327C4FEB7170080938747A9A4
:101D10006314F700894711A081473E85724405612D
:101D20008280011122CE00102326A4FE2324B4FEBB
:101D3000832784FE91E7B70700809387070921A8CE
:101D4000032784FE85476317F700B7070080938752
:101D5000070911A081473E85724405618280011107
:101D600022CE00102326A4FE2324B4FE832784FE63
:101D700099E38D4709A8032784FE85476314F7007C
:101D80009D4711A081473E857244056182805D7147
:101D900086C6A2C4CAC2CEC052DE56DC5ADA5ED8AB
:101DA00062D666D48008232EA4FA8327C4FB3E851E
:101DB00005372326A4FC0327C4FCB167F117BA97A3
:101DC0009C432324F4FC0327C4FCB167E117BA97B2
:101DD0009C432322F4FC0327C4FCB167F117BA9794
:101DE0009C43032784FCE318F7FC832784FC3E8C88
:101DF000814C93190C000149832744FC3E8A814A97
:101E0000336B4901B3EB5901DA875E883E85C285A1
:101E1000B640264416498649725AE25A525BC25B62
:101E2000325CA25C61618280797106D622D44AD28A
:101E30004ED00018232EA4FC232CB4FC2328C4FC71
:101E4000232AD4FC8327C4FD2326F4FE8327C4FE63
:101E50003E85BD3D2324A4FE832784FD8E073E8757
:101E6000832784FE3E9791679107BA973E87FD5777
:101E70001CC3832784FD8E073E87832784FE3E97FD
:101E80009167BA973E87832704FD1CC3832744FDCF
:101E900013D907008149832784FD8E073E87832756
:101EA00084FE3E9791679107BA974A8798C3814706
:101EB0003E85B250225412598259456182800111E7
:101EC00006CE22CC0010232604FEF32740F1232661
:101ED000F4FE8327C4FE3E85EF30106B2324A4FE5E
:101EE000032584FEEF30F067AA873E85F240624406
:101EF00005618280397106DE22DC80002326A4FC85
:101F00000325C4FCDD3B2324A4FE8327C4FC232239
:101F1000F4FE832744FEDC43A9EF232604FE81A0C0
:101F20008325C4FE0325C4FCED3B2320A4FE8325AA
:101F3000C4FE0325C4FC2535232EA4FC832704FE00
:101F40009C43DC4F8326C4FC01468325C4FD032546
:101F500004FE82978327C4FE85072326F4FE032709
:101F6000C4FE832784FEE34DF7FA832744FE05472A
:101F7000D8C30100F250625421618280397106DEBB
:101F800022DC80002326A4FC2324B4FC2322C4FCEE
:101F90002320D4FCFD572326F4FEEF10E03B232042
:101FA000A4FE232404FE213F232EA4FC0325C4FC0D
:101FB000A933232CA4FC032704FE85476308F700FC
:101FC000832704FE81C78327C4FE49A0232204FE81
:101FD00091A0832544FE0325C4FC5133232AA4FC8D
:101FE000832544FE0325C4FC2D3B2324A4FE0327A4
:101FF000C4FD832784FE6318F700032784FC83272E
:1020000044FD6300F702232404FE832744FE850772
:102010002322F4FE032744FE832784FDE34BF7FAD3
:1020200011A00100832784FE85C3832784FE9C437F
:10203000DC4F832604FC032644FC832584FC032513
:1020400084FE82972326A4FE8327C4FE3E85F25099
:10205000625421618280797122D60018232EA4FC5B
:10206000232CB4FC232AC4FC2328D4FCFD572326AC
:10207000F4FE8327C4FE3E853254456182800111FF
:1020800006CE22CC00102326A4FEEF10E02CAA8757
:102090003E85F240624405618280797106D622D481
:1020A0000018232EA4FC232CB4FCFD572326F4FE99
:1020B00039352324A4FE832784FE95C3032784FD9A
:1020C000854763EFE700832784FE9C43DC43832539
:1020D00084FD032584FE82972326A4FE11A001001F
:1020E0008327C4FE3E85B2502254456182803971F7
:1020F00006DE22DC80002326A4FC2324B4FCFD574A
:102100002326F4FE832784FCC9C7232404FE453B11
:102110002320A4FE0325C4FCCD36232EA4FC2322B9
:1021200004FE91A0832544FE0325C4FC0D39232C15
:10213000A4FC832544FE0325C4FCE5362324A4FE29
:10214000032704FE832784FE6318F700032784FC1B
:10215000832784FD6300F702232404FE832744FEC3
:1021600085072322F4FE032744FE8327C4FDE34BA7
:10217000F7FA11A00100832784FE81CF832784FE14
:102180009C43DC53832584FC032584FE829723260D
:10219000A4FE8327C4FE3E85F250625421618280F2
:1021A000397106DE22DC80002326A4FC2324B4FC43
:1021B000FD572326F4FE832784FCC9C7232404FE8D
:1021C000FD392320A4FE0325C4FC053E232EA4FCD8
:1021D000232204FE91A0832544FE0325C4FC41363E
:1021E000232CA4FC832544FE0325C4FC1D3E23248C
:1021F000A4FE032704FE832784FE6318F700032749
:1022000084FC832784FD6300F702232404FE8327D4
:1022100044FE85072322F4FE032744FE8327C4FDE2
:10222000E34BF7FA11A00100832784FE81CF8327B7
:1022300084FE9C439C57832584FC032584FE82975F
:102240002326A4FE8327C4FE3E85F25062542161FA
:102250008280797106D622D40018232EA4FC232C68
:10226000B4FC232AC4FCFD572326F4FE8327C4FDB7
:102270002324F4FE0325C4FDEFF09FA52322A4FE32
:10228000032784FD89476309F704032784FD8947F1
:1022900063C8E700032784FD8547630EF700F1A8B4
:1022A000032784FD8D47630DF704032784FD9147C1
:1022B0006309F708D9A0832744FDCDCB032584FE0D
:1022C000EFF0FFACAA872E88032744FD1CC323220E
:1022D0000701232604FE59A8832744FDD1CB832779
:1022E00044FD9C432320F4FE832704FE8A073E8797
:1022F000832744FEBA9723A00700232604FE8DA857
:10230000832744FDA5CB832744FD9C432320F4FE73
:10231000832704FE8A073E87832744FEBA973E87B9
:1023200085471CC30F008004832704FE8A073E876D
:10233000832744FEBA979C432326F4FE232604FEFB
:1023400015A8232604FE832744FD9DC7832744FD4B
:102350009C432320F4FE832704FE8A073E878327BD
:1023600044FEBA979C432326F4FE39A0010031A015
:10237000010021A0010011A001008327C4FE3E85B9
:10238000B250225445618280797106D622D4001859
:10239000232EA4FC232CB4FCEF30F021AA872326A3
:1023A000F4FE9307C4FE3E8689450325C4FD5535DA
:1023B000AA873E85B250225445618280797106D643
:1023C00022D40018232EA4FC232CB4FCEF30B01E22
:1023D000AA872326F4FE9307C4FE3E868D45032577
:1023E000C4FD853DAA873E85B25022544561828056
:1023F000011122CE00102326A4FE0327C4FE9387DA
:1024000041816314F700814711A0FD573E85724456
:1024100005618280011122CE00102326A4FE03272D
:10242000C4FE938741816317F700B727F4009387B1
:10243000074011A081473E857244056182800111E9
:1024400022CE00102326A4FE0327C4FE93874181D9
:102450006317F700B70700809387070911A081472A
:102460003E85724405618280011122CE0010232630
:10247000A4FE8327C4FE634CF000B7170080032737
:10248000C4FE0A07938787A8BA979C4311A0814787
:102490003E85724405618280011122CE0010F3272F
:1024A00040F12326F4FE8327C4FE3E857244056175
:1024B0008280011122CE0010A147F3A70730232606
:1024C000F4FE0100724405618280011122CE0010E9
:1024D000A147F3B707302326F4FE010072440561DB
:1024E0008280011122CE0010A147F3A74730232696
:1024F000F4FE0100724405618280011122CE0010B9
:10250000A147F3B747302326F4FE0100724405616A
:102510008280011122CE001093070008F3A74730F4
:102520002326F4FE0100724405618280011122CE4F
:10253000001093070008F3B747302326F4FE01008C
:10254000724405618280011122CE00108567938755
:102550000780F3A747302326F4FE0100724405618B
:102560008280011122CE0010856793870780F3B720
:1025700047302326F4FE01007244056182807971A0
:1025800022D60018232EA4FC8327C4FD0547B317C9
:10259000F7002326F4FE8327C4FEF3A74730232445
:1025A000F4FE0100325445618280797122D6001810
:1025B000232EA4FC8327C4FD0547B317F700232669
:1025C000F4FE8327C4FEF3B747302324F4FE010052
:1025D000325445618280011106CE22CC00102326A0
:1025E000A4FE2324B4FE13054006EF30607E0111E3
:1025F00006CE22CC00102326A4FE2324B4FE13050D
:10260000800CEF30E07C5D7186C696C49AC29EC095
:1026100022DE2ADC2EDA32D836D63AD43ED242D066
:1026200046CE72CC76CA7AC87EC680081305C01220
:10263000EF30007A1D7186CE96CC9ACA9EC8A2C68B
:10264000AAC4AEC2B2C036DE3ADC3EDA42D846D6C2
:1026500072D476D27AD07ECE80103D3D2A87B717CD
:1026600000800A07938787A8BA979C432326F4FA29
:102670008327C4FA85C70325C4FAD1332324A4FAD7
:10268000832784FA83A7070E2322F4FA832784FA88
:1026900083A7870D832544FA0D4582970100F640F4
:1026A000E6425643C6433644264596450646F2560C
:1026B0006257D2574258B258225E925E025FF24F82
:1026C000256173002030797106D622D40018232E9C
:1026D000A4FC232CB4FCC9332A87B71700800A074F
:1026E000938787A8BA979C432326F4FEF3272034C8
:1026F0002324F4FE8327C4FE95C70325C4FE81333B
:102700002322A4FE832784FE93F7F73F032744FE8A
:102710009387070E8A07BA979C478325C4FD032534
:10272000C4FE82970100B2502254456182801D711F
:1027300086CE96CC9ACA9EC8A2C6AAC4AEC2B2C061
:1027400036DE3ADC3EDA42D846D672D476D27AD039
:102750007ECE801091332A87B71700800A079387AF
:1027600087A8BA979C432326F4FA8327C4FA85C71F
:102770000325C4FAE9312324A4FA832784FA83A722
:1027800007142322F4FA832784FA83A78713832567
:1027900044FA1D4582970100F640E6425643C6437F
:1027A0003644264596450646F2566257D257425859
:1027B000B258225E925E025FF24F256173002030B4
:1027C000797106D622D40018232EA4FC232CB4FC45
:1027D000E131AA873E8549392326A4FE0325C4FE9C
:1027E000EF10001D2320A4FE2322B4FE832704FE45
:1027F000032844FEA9450146B386B7003685333524
:10280000F5003307C800B307E5003E87B6873A886E
:10281000BE8542860325C4FEEF10E01F0100B250C2
:10282000225445618280000000000000000000008A
:102830000000000000000000000000000000000098
:102840000000000000000000000000000000000088
:102850000000000000000000000000000000000078
:102860000000000000000000000000000000000068
:102870000000000000000000000000000000000058
:10288000197186DE96DC9ADA9ED8A2D6AAD4AED288
:10289000B2D0B6CEBACCBECAC2C8C6C6F2C4F6C2A0
:1028A000FAC07EDE0001CD3E2A87B71700800A07F6
:1028B000938787A8BA979C432326F4FAF3272034FA
:1028C0002324F4FAF32710342322F4FAF3273034C4
:1028D0002320F4FAF3275030232EF4F88327C4FA88
:1028E000E9C70325C4FAEFF09FB5232CA4F883278A
:1028F00084FA93F7F73F232AF4F8832784FA63D8FE
:102900000708032744F9AD4763D7E7008327C4F9D5
:1029100093F7F7039DEF832684F9032744F9BA87D9
:102920008607BA978E07B69783A787092326F4F8F8
:10293000832684F9032744F9BA878607BA978E0756
:10294000B69783A707098325C4F8032544F982971E
:10295000A9A88327C4F913F7F70389476317F70476
:10296000F32770302328F4F8832784F983A7C70D51
:102970002326F4F8832704F99C432324F4F88327BF
:1029800084F88325C4F8032544F9829739A80327DE
:1029900084F9832744F99387070E8A07BA979C47DF
:1029A000832544F90325C4FA8297F650E65256531C
:1029B000C6533654265596550656F6466647D647AC
:1029C0004648B648264E964E064FF25F09617300A0
:1029D00020300000000000000000000000000000A7
:1029E00000000000000000000000000000000000E7
:1029F00000000000000000001D7186CE96CC9ACA2F
:102A00009EC8A2C6AAC4AEC2B2C036DE3ADC3EDA66
:102A100042D846D672D476D27AD07ECE8010EFF0ED
:102A2000BFA72A87B71700800A07938787A8BA9796
:102A30009C432326F4FA8327C4FA8DC70325C4FADE
:102A4000EFF0FF9F2324A4FA832784FA83A787212A
:102A50002322F4FA832784FA83A70721832544FAE3
:102A6000414582970100F640E6425643C64336444C
:102A7000264596450646F2566257D2574258B258F6
:102A8000225E925E025FF24F2561730020301D715D
:102A900086CE96CC9ACA9EC8A2C6AAC4AEC2B2C0FE
:102AA00036DE3ADC3EDA42D846D672D476D27AD0D6
:102AB0007ECE8010EFF05F9E2A87B71700800A074E
:102AC000938787A8BA979C432326F4FA8327C4FAEE
:102AD0008DC70325C4FAEFF09F962324A4FA832719
:102AE00084FA83A707232322F4FA832784FA83A78F
:102AF0008722832544FA454582970100F640E64245
:102B00005643C6433644264596450646F256625716
:102B1000D2574258B258225E925E025FF24F256150
:102B2000730020301D7186CE96CC9ACA9EC8A2C66C
:102B3000AAC4AEC2B2C036DE3ADC3EDA42D846D6CD
:102B400072D476D27AD07ECE8010EFF0FF942A87AE
:102B5000B71700800A07938787A8BA979C43232654
:102B6000F4FA8327C4FA8DC70325C4FAEFF03F8D2A
:102B70002324A4FA832784FA83A787242322F4FA40
:102B8000832784FA83A70724832544FA494582973B
:102B90000100F640E6425643C64336442645964574
:102BA0000646F2566257D2574258B258225E925E9B
:102BB000025FF24F2561730020301D7186CE96CCE6
:102BC0009ACA9EC8A2C6AAC4AEC2B2C036DE3ADC59
:102BD0003EDA42D846D672D476D27AD07ECE8010F3
:102BE000EFF09F8B2A87B71700800A07938787A883
:102BF000BA979C432326F4FA8327C4FA8DC703258A
:102C0000C4FAEFF0DF832324A4FA832784FA83A78E
:102C100007262322F4FA832784FA83A787258325AE
:102C200044FA4D4582970100F640E6425643C643BA
:102C30003644264596450646F2566257D2574258C4
:102C4000B258225E925E025FF24F2561730020301F
:102C50001D7186CE96CC9ACA9EC8A2C6AAC4AEC220
:102C6000B2C036DE3ADC3EDA42D846D672D476D2EC
:102C70007AD07ECE8010EFF03F822A87B71700808F
:102C80000A07938787A8BA979C432326F4FA8327D9
:102C9000C4FA8DC70325C4FAEFF06FFA2324A4FA0F
:102CA000832784FA83A787272322F4FA832784FAC9
:102CB00083A70727832544FA514582970100F640F0
:102CC000E6425643C6433644264596450646F256E6
:102CD0006257D2574258B258225E925E025FF24F5C
:102CE0002561730020301D7186CE96CC9ACA9EC88D
:102CF000A2C6AAC4AEC2B2C036DE3ADC3EDA42D8C0
:102D000046D672D476D27AD07ECE8010EFF0CFF84D
:102D10002A87B71700800A07938787A8BA979C432A
:102D20002326F4FA8327C4FA8DC70325C4FAEFF0EB
:102D30000FF12324A4FA832784FA83A707292322E7
:102D4000F4FA832784FA83A78728832544FA554514
:102D500082970100F640E6425643C6433644264574
:102D600096450646F2566257D2574258B258225EEE
:102D7000925E025FF24F2561730020301D7186CE96
:102D800096CC9ACA9EC8A2C6AAC4AEC2B2C036DE4B
:102D90003ADC3EDA42D846D672D476D27AD07ECEAB
:102DA0008010EFF06FEF2A87B71700800A0793872C
:102DB00087A8BA979C432326F4FA8327C4FA8DC7C1
:102DC0000325C4FAEFF0AFE72324A4FA832784FA9B
:102DD00083A7872A2322F4FA832784FA83A7072A62
:102DE000832544FA594582970100F640E64256434E
:102DF000C6433644264596450646F2566257D25794
:102E00004258B258225E925E025FF24F2561730013
:102E100020301D7186CE96CC9ACA9EC8A2C6AAC47E
:102E2000AEC2B2C036DE3ADC3EDA42D846D672D402
:102E300076D27AD07ECE8010EFF00FE62A87B717D1
:102E400000800A07938787A8BA979C432326F4FA41
:102E50008327C4FA8DC70325C4FAEFF04FDE23247D
:102E6000A4FA832784FA83A7072C2322F4FA832762
:102E700084FA83A7872B832544FA5D458297010056
:102E8000F640E6425643C643364426459645064636
:102E9000F2566257D2574258B258225E925E025F93
:102EA000F24F2561730020301D7186CE96CC9ACAF0
:102EB0009EC8A2C6AAC4AEC2B2C036DE3ADC3EDAB2
:102EC00042D846D672D476D27AD07ECE8010EFF039
:102ED000AFDC2A87B71700800A07938787A8BA97BD
:102EE0009C432326F4FA8327C4FA8DC70325C4FA2A
:102EF000EFF0EFD42324A4FA832784FA83A7872D45
:102F00002322F4FA832784FA83A7072D832544FA22
:102F1000614582970100F640E6425643C643364477
:102F2000264596450646F2566257D2574258B25841
:102F3000225E925E025FF24F2561730020301D71A8
:102F400086CE96CC9ACA9EC8A2C6AAC4AEC2B2C049
:102F500036DE3ADC3EDA42D846D672D476D27AD021
:102F60007ECE8010EFF04FD32A87B71700800A0774
:102F7000938787A8BA979C432326F4FA8327C4FA39
:102F80008DC70325C4FAEFF08FCB2324A4FA83273F
:102F900084FA83A7072F2322F4FA832784FA83A7CE
:102FA000872E832544FA654582970100F640E64264
:102FB0005643C6433644264596450646F256625762
:102FC000D2574258B258225E925E025FF24F25619C
:102FD000730020301D7186CE96CC9ACA9EC8A2C6B8
:102FE000AAC4AEC2B2C036DE3ADC3EDA42D846D619
:102FF00072D476D27AD07ECE8010EFF0EFC92A87D5
:10300000B71700800A07938787A8BA979C4323269F
:10301000F4FA8327C4FA8DC70325C4FAEFF02FC250
:103020002324A4FA832784FA83A787302322F4FA7F
:10303000832784FA83A70730832544FA694582975A
:103040000100F640E6425643C643364426459645BF
:103050000646F2566257D2574258B258225E925EE6
:10306000025FF24F2561730020301D7186CE96CC31
:103070009ACA9EC8A2C6AAC4AEC2B2C036DE3ADCA4
:103080003EDA42D846D672D476D27AD07ECE80103E
:10309000EFF08FC02A87B71700800A07938787A8A9
:1030A000BA979C432326F4FA8327C4FA8DC70325D5
:1030B000C4FAEFF0CFB82324A4FA832784FA83A7B5
:1030C00007322322F4FA832784FA83A787318325E2
:1030D00044FA6D4582970100F640E6425643C643E6
:1030E0003644264596450646F2566257D257425810
:1030F000B258225E925E025FF24F2561730020306B
:103100001D7186CE96CC9ACA9EC8A2C6AAC4AEC26B
:10311000B2C036DE3ADC3EDA42D846D672D476D237
:103120007AD07ECE8010EFF02FB72A87B7170080B5
:103130000A07938787A8BA979C432326F4FA832724
:10314000C4FA8DC70325C4FAEFF06FAF2324A4FAA5
:10315000832784FA83A787332322F4FA832784FA08
:1031600083A70733832544FA714582970100F6400F
:10317000E6425643C6433644264596450646F25631
:103180006257D2574258B258225E925E025FF24FA7
:103190002561730020301D7186CE96CC9ACA9EC8D8
:1031A000A2C6AAC4AEC2B2C036DE3ADC3EDA42D80B
:1031B00046D672D476D27AD07ECE8010EFF0CFADE4
:1031C0002A87B71700800A07938787A8BA979C4376
:1031D0002326F4FA8327C4FA8DC70325C4FAEFF037
:1031E0000FA62324A4FA832784FA83A70735232272
:1031F000F4FA832784FA83A78734832544FA754534
:1032000082970100F640E6425643C64336442645BF
:1032100096450646F2566257D2574258B258225E39
:10322000925E025FF24F2561730020301D7186CEE1
:1032300096CC9ACA9EC8A2C6AAC4AEC2B2C036DE96
:103240003ADC3EDA42D846D672D476D27AD07ECEF6
:103250008010EFF06FA42A87B71700800A079387C2
:1032600087A8BA979C432326F4FA8327C4FA8DC70C
:103270000325C4FAEFF0AF9C2324A4FA832784FA31
:1032800083A787362322F4FA832784FA83A7073695
:10329000832544FA794582970100F640E642564379
:1032A000C6433644264596450646F2566257D257DF
:1032B0004258B258225E925E025FF24F256173005F
:1032C00020301D7186CE96CC9ACA9EC8A2C6AAC4CA
:1032D000AEC2B2C036DE3ADC3EDA42D846D672D44E
:1032E00076D27AD07ECE8010EFF00F9B2A87B71768
:1032F00000800A07938787A8BA979C432326F4FA8D
:103300008327C4FA8DC70325C4FAEFF04F93232413
:10331000A4FA832784FA83A707382322F4FA8327A1
:1033200084FA83A78737832544FA7D458297010075
:10333000F640E6425643C643364426459645064681
:10334000F2566257D2574258B258225E925E025FDE
:10335000F24F256173002030011122CE0010F327B7
:1033600050302326F4FE8327C4FE93F7F703232669
:10337000F4FE0327C4FE8947630DF7000327C4FE4C
:103380008D47630AF7000327C4FE85476307F700EC
:1033900039A08D4731A0914721A0854711A08147D1
:1033A0003E85724405618280797122D60018232EF1
:1033B000A4FC232CB4FCF32750302326F4FE8327EF
:1033C000C4FE93F707FC2326F4FE832784FD232401
:1033D000F4FE0327C4FD914763E0E7068327C4FD9D
:1033E00013972700B777012093878702BA979C43EA
:1033F0008287832784FE739077308327C4FE93E708
:103400002700739057300DA8832784FE7390773080
:103410008327C4FE93E737007390573031A8832782
:1034200084FE93E717007390573039A0832784FEFA
:10343000F19B739057300100010032544561828046
:10344000011122CE00102326A4FE8327C4FEF51707
:103450007147636DF70013972700B77701209387B3
:10346000C703BA979C438287854719A0010081470B
:103470003E85724405618280797106D622D4001897
:10348000232EA4FC232CB4FC232AC4FC232604FEF4
:103490008327C4FD99E3FD5749A8032784FDFD4711
:1034A00063E0E708832784FD13972700B77701209F
:1034B0009387070BBA979C438287832744FD81C774
:1034C000EFE03FFF8DA0EFF04F80B1A8832744FDD0
:1034D00081C7EFF00F8181A8EFF02F82A9A0832789
:1034E00044FD81C7EFF0EF823DA8EFF02F8425A8BF
:1034F000832744FD81C7EFF00F8535A0EFF06F867D
:103500001DA0832744FD99C7832784FD3E85EFF0E6
:103510000F8711A8832784FD3E85EFF00F8921A036
:10352000FD572326F4FE8327C4FE3E85B250225465
:1035300045618280797122D60018232EA4FC232CA9
:10354000B4FC232AC4FC8327C4FD2326F4FE0327EE
:1035500084FDAD4763C2E702832744FD91CF032773
:10356000C4FE832784FD9387070E8A07BA97032733
:1035700044FD98C7814711A0FD573E8532544561EF
:103580008280397106DE22DC80002326A4FC83279A
:10359000C4FC2322F4FE832744FEDC43639D071012
:1035A000FD5773B04730FD5773B04734F3271030E1
:1035B0002320F4FE032704FE8967F98F99E7032788
:1035C00004FEB7070400F98F99C7FD5773B0373071
:1035D000FD5773B02730032704FEB7070400F98FA7
:1035E00081C7FD5773B00718232604FEB9A08326B0
:1035F00044FE0327C4FEBA878607BA978E07B6979C
:1036000023A80708832644FE0327C4FEBA8786073B
:10361000BA978E07B69723AA0708832644FE032786
:10362000C4FEBA878607BA978E07B69723AC0708F9
:103630008327C4FE85072326F4FE0327C4FEFD4727
:10364000E3D7E7FA232404FE1DA0032744FE8327C3
:1036500084FE9387070E8A07BA973727012013073E
:10366000675D98C7832784FE85072324F4FE03271C
:1036700084FEAD47E3DBE7FCB7370120938507887D
:1036800001451D33F3271030232EF4FC0327C4FD1E
:10369000C16793878702F98F99CBF3270030232ED8
:1036A000F4FC0327C4FD8967D98F73900730832703
:1036B00044FE0547D8C30100F25062542161828064
:1036C000797106D622D40018232EA4FC232CB4FC36
:1036D000232AC4FC2328D4FC232604FE8327C4FD0C
:1036E0002324F4FE032584FDA13BAA8799E3D55743
:1036F00011AA832744FD85CF832684FE032784FDFA
:10370000BA878607BA978E07B697032744FD23A882
:10371000E708832684FE032784FDBA878607BA97C5
:103720008E07B697032704FD23ACE708D1A88327AB
:1037300084FDF51771476362F70C13972700B7777D
:10374000012093870713BA979C438287832684FEC0
:10375000032784FDBA878607BA978E07B69737275F
:1037600001201307676C23A8E708832684FE03273C
:1037700084FDBA878607BA978E07B697032704FD9C
:1037800023AAE708B5A8832684FE032784FDBA8709
:103790008607BA978E07B697372701201307077C4D
:1037A00023A8E708832684FE032784FDBA878607BB
:1037B000BA978E07B697032704FD23AAE70889A0C6
:1037C000832684FE032784FDBA878607BA978E076F
:1037D000B697372701201307E75E23A8E70883265B
:1037E00084FE032784FDBA878607BA978E07B697AB
:1037F000032704FD23AAE70821A0D1572326F4FEBE
:103800008327C4FE3E85B250225445618280011157
:1038100006CE22CC00102326A4FE2324B4FE832748
:1038200084FE0546BE850325C4FEB931AA873E85C0
:10383000F240624405618280011106CE22CC001064
:103840002326A4FE2324B4FE832784FE0146BE85DE
:103850000325C4FEEFF05FC2AA873E85F2406244B2
:1038600005618280011106CE22CC00102326A4FE21
:10387000EFF09FAEAA873E85F240624405618280E8
:10388000797106D622D40018232EA4FC232CB4FC74
:103890008327C4FD2326F4FE832784FD99EBB737E5
:1038A000012093850788032584FDEFF0FFAF814752
:1038B0000DA0032784FD8547631CF700B76701202F
:1038C00093850700032584FDEFF01FAE814711A00B
:1038D000FD573E85B250225445618280011122CEAF
:1038E00000102326A4FE2324B4FE2322C4FE814715
:1038F0003E85724405618280397122DE8000232674
:10390000A4FC01438143232464FE232674FE732513
:1039100000B82322A4FE732500B02320A4FE732543
:1039200000B8232EA4FC832844FE0325C4FD639520
:10393000A802032544FEAA85014613980500814785
:10394000032604FEB286014733E6D7002324C4FED3
:10395000B367E8002326F4FE832784FE0328C4FE11
:103960003E85C285725421618280797106D622D447
:103970004AD24ED00018232EA4FC8327C4FD81E731
:103980000149814921A80325C4FDEFE0BFA82326F2
:10399000A4FE8327C4FE3E89FD87BE89CA874E8860
:1039A0003E85C285B25022541259825945618280A7
:1039B000797106D622D40018232EA4FC8147014831
:1039C0002320F4FE232204FF0325C4FDEFE03FA7DC
:1039D0002326A4FE8327C4FE8DC78327C4FE83A7A6
:1039E000C7132324F4FE832784FE81CF832784FE1C
:1039F0009C43F843930704FE3E868545032584FED9
:103A00000297832704FE032844FE3E85C285B250F8
:103A1000225445618280797106D622D426D20018BC
:103A2000232EA4FC2328B4FC232AC4FCFD57232600
:103A3000F4FE0325C4FDEFE09FA02324A4FE83270A
:103A400084FE8DCF832784FE83A7C7132322F4FE31
:103A5000832744FE85C7832744FE9C43A447032550
:103A6000C4FDEFE0FF98AA87032604FD832644FDEA
:103A7000BE85032544FE82942326A4FE8327C4FE2C
:103A80003E85B2502254925445618280011122CE6B
:103A900000102326A4FEB7170080938747A93E8510
:103AA000724405618280011122CE00102326A4FEFB
:103AB0009D473E85724405618280011122CE00102F
:103AC0002326A4FEB7170080938747A93E8572443A
:103AD00005618280011122CE00102326A4FE8D47AD
:103AE0003E85724405618280797106D622D4001821
:103AF000232EA4FC232CB4FCFD572326F4FE03251F
:103B0000C4FDEFE0DF932324A4FE832784FE9DC73A
:103B1000832784FE83A7C70D2322F4FE832744FE58
:103B200091CF832744FE9C43F843930784FD3E8650
:103B30008D45032544FE02972326A4FE8327C4FE59
:103B40003E85B250225445618280797106D622D4D6
:103B50000018232EA4FC232CB4FCFD572326F4FECE
:103B60000325C4FDEFE0BF8D2324A4FE832784FE3C
:103B70009DC7832784FE83A7C70D2322F4FE8327D6
:103B800044FE91CF832744FE9C43F843930784FD72
:103B90003E868945032544FE02972326A4FE8327FB
:103BA000C4FE3E85B250225445618280797106D6AA
:103BB00022D40018232EA4FC232CB4FC232604FEBC
:103BC0000325C4FDEFE0BF872324A4FE832784FEE2
:103BD0009DC7832784FE83A7C70D2322F4FE832776
:103BE00044FE91CF832744FE9C43F843930784FD12
:103BF0003E869145032544FE02972326A4FE832793
:103C0000C4FE3E85B250225445618280011106CE29
:103C100022CC00102326A4FE0325C4FEEFE03F8241
:103C2000AA873E85F240624405618280797106D69A
:103C300022D40018232EA4FC232CB4FC232AC4FC79
:103C40000325C4FDEFE0AFFF2326A4FE8327C4FEB7
:103C500099CB032644FD832584FD0325C4FEEFF0A4
:103C60007F8DAA8711A0FD573E85B2502254456131
:103C70008280011122CE00102326A4FE2324B4FE4C
:103C8000832784FE83D7070013F737008D4763141B
:103C9000F700914711A089473E85724405618280F3
:103CA000797122D60018232EA4FCF3271034232682
:103CB000F4FE8327C4FE3E853254456182800111A3
:103CC00022CE00102326A4FE2324B4FE832784FEE4
:103CD0007390173481473E857244056182800111DB
:103CE00022CE00102326A4FE0327C4FEB7070080BF
:103CF000938787446315F700B707000C11A081472D
:103D00003E85724405618280011122CE0010232677
:103D1000A4FE0327C4FEB70700809387874463157A
:103D2000F7009307500311A081473E857244056157
:103D30008280011122CE00102326A4FE0327C4FE98
:103D4000B7070080938787446314F7009D4711A04D
:103D500081473E85724405618280011122CE0010A8
:103D60002326A4FE2324B4FE832784FE91E7B7070D
:103D700000809387070911A081473E857244056141
:103D80008280011122CE00102326A4FE2324B4FE3B
:103D9000832784FE99E3AD4711A081473E85724495
:103DA00005618280797106D622D40018232EA4FCE6
:103DB0000325C4FD2D372326A4FE0327C4FEB70721
:103DC00020009107BA979C433E85B250225445612A
:103DD0008280797106D622D40018232EA4FC232CCD
:103DE000B4FC0325C4FDE53D2326A4FE0327C4FE41
:103DF000B70720009107BA973E87832784FD1CC32D
:103E00000100B250225445618280797106D622D4D5
:103E10000018232EA4FC232CB4FC0325C4FDC135BB
:103E20002326A4FE0327C4FEB7072000BA973E87C7
:103E3000832784FD1CC381473E85B25022544561CF
:103E40008280797106D622D40018232EA4FC032583
:103E5000C4FD71352326A4FE0327C4FEB707200046
:103E6000BA979C433E85B250225445618280797155
:103E700006D622D40018232EA4FC232CB4FC232A1B
:103E8000C4FC0325C4FDA13D2326A4FE0325C4FDD7
:103E90004D35AA872324F4FE832784FE85C7032794
:103EA00044FD832784FE637FF700832784FD8A0710
:103EB0003E878327C4FEBA973E87832744FD1CC3F1
:103EC000814711A0FD573E85B25022544561828042
:103ED000797106D622D40018232EA4FC232CB4FC1E
:103EE0000325C4FDED3B2326A4FE832784FD8A071A
:103EF0003E878327C4FEBA979C433E85B250225426
:103F000045618280797106D622D40018232EA4FC44
:103F1000232CB4FC232AC4FC0325C4FDC933232667
:103F2000A4FE832784FD95878A073E878327C4FEE6
:103F30003E978967BA979C432324F4FE832744FD68
:103F400081CF832784FDFD8B0547B317F7003E879C
:103F5000832784FED98F29A8832784FDFD8B0547FD
:103F6000B317F70093C7F7FF3E87832784FEF98FC7
:103F7000032784FD15870A07BA860327C4FEBA966D
:103F8000096736971CC30100B250225445618280F4
:103F9000011106CE22CC00102326A4FE2324B4FE59
:103FA0001305C012EF10D062797106D622D4001822
:103FB000232EA4FC232CB4FC832784FD2326F4FEAB
:103FC0000325C4FEC5332324A4FE0325C4FE2D3BD4
:103FD000AA872322F4FE032784FE832744FE63720C
:103FE000F7040327C4FE832784FE8A07BA979C47F9
:103FF0008DCB0327C4FE832784FE8A07BA9703A8C4
:104000008700032684FE8326C4FE032784FEBA8726
:104010008607BA978E07B69783A7070FBE853285A6
:104020000298832584FE0325C4FE65330100B25047
:10403000225445618280397106DE22DC800023260D
:10404000A4FC8327C4FC2322F4FE832744FEDC4324
:10405000639D0710232604FE09A20325C4FCEFF08C
:10406000BFCA2320A4FE8325C4FE0325C4FCF5316A
:10407000232EA4FC8325C4FE0325C4FC1933232C62
:10408000A4FC8327C4FD9C439C430325C4FD829765
:10409000232404FE85A00146832584FE032544FED7
:1040A00095350146832584FE0325C4FCC9330327C7
:1040B00044FE832784FE8A07BA9723A40700832639
:1040C00044FE032784FEBA878607BA978E07B69701
:1040D00023A6070E832644FE032784FEBA8786079D
:1040E000BA978E07B69723A8070E832784FE850705
:1040F0002324F4FE032784FE832704FEE34DF7F810
:1041000081450325C4FC11338327C4FD9C43DC4F48
:10411000832644FE0146832584FD0325C4FD829742
:104120008327C4FD9C43D84F832644FEB747012014
:10413000138687FA832584FD0325C4FD0297832710
:10414000C4FD9C43DC53832584FD0325C4FD829775
:104150008327C4FE85072326F4FE8327C4FEE35E7F
:10416000F0EE832744FE0547D8C30100F2506254A5
:1041700021618280797106D622D40018232EA4FCF6
:10418000232CB4FC232AC4FC2328D4FC8327C4FD9D
:104190002326F4FE0325C4FDEFF01FB72A878327EB
:1041A00084FD63C4E700FD5751A0832744FD9DCFE4
:1041B0000946832584FD0325C4FDEFF05FCB03276B
:1041C000C4FE832784FD8A07BA97032744FD98C756
:1041D0008326C4FE032784FDBA878607BA978E0715
:1041E000B697032704FD23A8E70E81A00546832583
:1041F00084FD0325C4FDEFF09FC70327C4FE83277A
:1042000084FD8A07BA9737470120130707F998C733
:104210008326C4FE032784FDBA878607BA978E07D4
:10422000B697032704FD23A6E70E81473E85B250CB
:10423000225445618280797106D622D40018232E3B
:10424000A4FC232CB4FC8327C4FD2326F4FE032501
:10425000C4FDEFF07FAB2A87832784FD63C4E700AA
:10426000FD5709A80546832584FD0325C4FEEFF00C
:104270007FC981473E85B250225445618280797161
:1042800006D622D40018232EA4FC232CB4FC8327AA
:10429000C4FD2326F4FE0325C4FDEFF0FFA62A8704
:1042A000832784FD63C4E700FD5709A801468325E1
:1042B00084FD0325C4FEEFF0FFC481473E85B25064
:1042C000225445618280011122CE00102326A4FED3
:1042D000B70700809387C7063E85724405618280D8
:1042E000011122CE00102326A4FE9387C1813E85B2
:1042F000724405618280011122CE00102326A4FEA3
:1043000081473E85724405618280411122C60008C2
:10431000938701833E85324441018280397106DEF4
:1043200022DC80002326A4FC0325C4FC693F23264D
:10433000A4FE0325C4FCC1372324A4FE0325C4FC2A
:1043400045372322A4FED1372320A4FE832704FE71
:104350009C43832584FE032544FE8297232EA4FCE0
:104360000327C4FDB7070040F98F99E3FD5725A047
:104370008327C4FD63C40700FD5731A80325C4FE8D
:10438000EF10B00BAA873E878327C4FD93F7F7038E
:104390008507B357F7023E85F2506254216182804F
:1043A000011106CE22CC00102326A4FE2324B4FE45
:1043B0000325C4FEA537AA873E85F2406244056105
:1043C0008280011122CE00102326A4FEB7070080B0
:1043D000938707063E85724405618280011122CED3
:1043E00000102326A4FE9387C1813E857244056197
:1043F0008280011122CE00102326A4FE91473E8523
:10440000724405618280411122C6000893870183AE
:104410003E85324441018280397106DE22DC800013
:104420002326A4FC0325C4FC693F2326A4FE032500
:10443000C4FCC1372324A4FE0325C4FC4537232232
:10444000A4FED1372320A4FE832704FE9C438325AA
:1044500084FE032544FE8297232EA4FC0327C4FD7B
:10446000B7070040F98F99E3FD5721A88327C4FDC2
:1044700063C40700FD5731A00325C4FEEF10E07BA5
:10448000AA873E85F250625421618280011106CED6
:1044900022CC00102326A4FE2324B4FE0325C4FE50
:1044A000A53FAA873E85F2406244056182800111E2
:1044B00022CE00102326A4FEB7170080938707A6FC
:1044C0003E85724405618280011122CE00102326B0
:1044D000A4FEB71700809387C7A63E857244056186
:1044E0008280011122CE00102326A4FE9387C18171
:1044F0003E85724405618280011122CE0010232680
:10450000A4FEB1473E85724405618280411122C6F6
:1045100000089387C1813E85324441018280411168
:1045200022C60008A1473E853244410182804111E4
:1045300022C60008B727F400938707403E8532441F
:1045400041018280411122C60008B78700103E85D4
:10455000324441018280411122C6000893870183C1
:104560003E85324441018280011122CE0010232673
:10457000A4FE2324B4FE832784FE9C470327C4FEA5
:104580006369F700832784FEDC470327C4FE63F4D6
:10459000E700FD5729A8832784FE98438327C4FE9C
:1045A0003307F702832784FEDC43B357F7023E85C7
:1045B000724405618280011106CE22CC0010853F35
:1045C0002326A4FE8327C4FE91C7B7170080138556
:1045D00087A731200100F240624405618280397171
:1045E00006DE22DC80002326A4FC8327C4FC3E8553
:1045F000E13D2326A4FE253F2324A4FE0D372322DC
:10460000A4FE89372320A4FE032704FE832744FE4B
:10461000BA97232EF4FC8327C4FCDC433E85EF10BD
:1046200080588327C4FD9843C167F98F91EB832796
:10463000C4FD9843C177FD177D8F8327C4FD98C3C0
:104640008327C4FE91CB8327C4FD9843B70702009C
:104650005D8F8327C4FD98C38327C4FC9C43D84344
:104660008327C4FC832584FE3E8502978327C4FCF0
:104670009C473E85EF1020530100F25062542161A7
:1046800082801D7186CEA2CC80102326A4FA032539
:10469000C4FA1D3D2326A4FE0325C4FA093D2324A4
:1046A000A4FE0325C4FAA53D2322A4FE0325C4FAD3
:1046B000B13D2320A4FE0325C4FA3D3D232EA4FCD6
:1046C0000325C4FA393D232CA4FC7135232AA4FC0C
:1046D000832744FD9C43832544FE032504FE8297E3
:1046E0002328A4FC832744FD9C438325C4FD032584
:1046F00084FD82972326A4FC032704FDC1677D8FD8
:10470000C1676378F700032584FEEF100053AA8782
:10471000E1A8032704FDB70702007D8FB707020059
:104720006365F7008327C4FE19A0832784FE3E85B6
:10473000EF10A0502324A4FC032704FDB7070400B6
:104740007D8FB70704006365F700832784FC69A8A1
:10475000832704FD9D8B85072322F4FC832704FD1A
:1047600093F7073F9183850786072320F4FC0327EF
:1047700004FD8567938707C07D8F9307F03F63E44F
:10478000E700FD5795A0032704FD8567938707C0C1
:10479000F98FA9830547B317F700232EF4FA0327EF
:1047A00084FC832744FC3347F702832704FC330748
:1047B000F7028327C4FBB347F702232CF4FA8327BD
:1047C000C4FC13F707109307F00F63F5E700832786
:1047D00084FB19A8032784FB8327C4FC93F7F70302
:1047E00085078607B357F7023E85F6406644256184
:1047F0008280397106DE22DC80002326A4FC23247B
:10480000B4FCFD572326F4FEB707008093C7F7FFDB
:104810002324F4FE930730042322F4FEB5A083265C
:10482000C4FC832744FE13975700B7770120938772
:10483000C727BA97BE853685EFF01FD32320A4FE85
:10484000032704FEFD57630CF702032704FE8327AA
:1048500084FC1D8F9357F7413D8FB307F740232EFC
:10486000F4FC0327C4FD832784FE635AF7008327E3
:1048700044FE2326F4FE8327C4FD2324F4FE83276D
:1048800044FEFD172322F4FE832744FEE3D907F8F4
:104890008327C4FE3E85F25062542161828001115B
:1048A00022CE00102326A4FE2324B4FE2322C4FE1D
:1048B0008327C4FE9C4313F787FF8327C4FE98C356
:1048C0008327C4FE9843832744FE9C4B9D8B5D8FBA
:1048D0008327C4FE98C38327C4FE9C4313F7F7C005
:1048E0008327C4FE98C38327C4FE9843832744FECE
:1048F000DC4B920793F7073F5D8F8327C4FE98C375
:104900008327C4FE9843FD779387F73F7D8F8327E6
:10491000C4FE98C38327C4FE9843832744FE9C4F5C
:104920009396A7008567938707C0F58F5D8F8327D0
:10493000C4FE98C3832744FEDC4F63DB0702832752
:1049400084FE9C4313E70710832784FE98C38327C4
:1049500084FE9C4313F707FC832784FE98C38327B8
:1049600084FE9C4313E71700832784FE98C32DA879
:10497000832784FE9C4313F7F7EF832784FE98C3B5
:10498000832784FE9C4313F707FC832784FE98C388
:10499000832784FE9843832744FEDC4F93F7F70375
:1049A0005D8F832784FE98C38327C4FE9843B7078F
:1049B000FCFFFD177D8F8327C4FE98C3010083276A
:1049C000C4FE9C43E3DD07FE010072440561828062
:1049D0005D7186C6A2C48008232EA4FA232CB4FAE3
:1049E0000325C4FBEFF05FAE2326A4FE0325C4FB22
:1049F000EFF0FFAB2324A4FE0325C4FBEFF03FB28E
:104A00002322A4FE0325C4FBEFF01FAF2320A4FE46
:104A1000EFF05FB3232EA4FC0327C4FD832744FEDD
:104A2000BA97232CF4FC0327C4FD832704FEBA970E
:104A3000232AF4FC832784FD9843C167F98F91CB27
:104A4000832784FD9843C177FD177D8F832784FDDD
:104A500098C3832784FD9843B7070200F98F81C765
:104A60008327C4FE19A0832784FE3E85EF10E01C37
:104A70002328A4FC032704FDBA878607BA9713D717
:104A8000F7410D8BBA9789873E87832784FB63CBD9
:104A9000E702032704FDBA878A07BA9713D7F741BD
:104AA0000D8BBA9789873E87832784FB634CF70079
:104AB000832784FD9843B70704005D8F832784FD17
:104AC00098C381A8832584FB032504FDEFF07FD2E2
:104AD0002326A4FC0327C4FCFD576303F7028327A6
:104AE000C4FC13975700B77701209387C727BA975D
:104AF0003E86832544FD032584FDEFF05FDA11A88F
:104B0000832784FD9843B70704005D8F832784FDC6
:104B100098C3832784FD9843C1675D8F832784FDF5
:104B200098C30325C4FBEFF0DFB5AA873E85B640E6
:104B3000264461618280011106CE22CC0010EFF084
:104B40001F9F2326A4FE8325C4FEB717008013856C
:104B500087A7EF10E0100100F240624405618280F7
:104B6000411122C60008B78700103E85324441013A
:104B70008280797106D622D40018232EA4FC232C1F
:104B8000B4FCF93FAA872326F4FE032784FD83277C
:104B9000C4FEBA979C433E85B25022544561828040
:104BA000797106D622D40018232EA4FC232CB4FC41
:104BB000232AC4FC7537AA872326F4FE032784FD25
:104BC0008327C4FEBA973E87832744FD1CC33E85D6
:104BD000B250225445618280011122CE001023265A
:104BE000A4FE0327C4FE938781816315F700B727CE
:104BF000011011A081473E85724405618280011138
:104C000022CE00102326A4FE0327C4FE93878181B1
:104C10006317F700B70700809387874411A0814787
:104C20003E85724405618280011122CE0010232648
:104C3000A4FE2324B4FE0327C4FE93878181631757
:104C4000F700832784FE99E3A14715AE0327C4FE2E
:104C5000938781816319F700032784FE85476314D6
:104C6000F700A54729AE0327C4FE93878181631906
:104C7000F700032784FE89476314F700A94701A6BC
:104C80000327C4FE938781816319F700032784FEFD
:104C90008D476314F700AD47DDA40327C4FE938757
:104CA00081816319F700032784FE91476314F7009D
:104CB000B147F1A40327C4FE938781816319F700EC
:104CC000032784FE95476314F700B5474DAC0327CF
:104CD000C4FE938781816319F700032784FE9947F7
:104CE0006314F700B94761AC0327C4FE9387818141
:104CF0006319F700032784FE9D476314F700BD473F
:104D0000BDAC0327C4FE938781816319F700032795
:104D100084FEA1476314F700C14795A40327C4FE8E
:104D2000938781816319F700032784FEA5476314E5
:104D3000F700C547A9A40327C4FE9387818163199F
:104D4000F700032784FEA9476314F700C94705ACA1
:104D50000327C4FE938781816319F700032784FE2C
:104D6000AD476314F700CD4719AC0327C4FE938702
:104D700081816319F700032784FEB1476314F700AC
:104D8000D147F5AA0327C4FE938781816319F700F1
:104D9000032784FEB5476314F700D547CDA2032748
:104DA000C4FE938781816319F700032784FEB94706
:104DB0006314F700D947E1A20327C4FE93878181DA
:104DC0006319F700032784FEBD476314F700DD472E
:104DD0007DA20327C4FE938781816319F70003270F
:104DE00084FEC1476314F700E14751AA0327C4FEBC
:104DF000938781816319F700032784FEC5476314F5
:104E0000F700E547ADAA0327C4FE938781816319A4
:104E1000F700032784FEC9476314F700E94785A21A
:104E20000327C4FE938781816319F700032784FE5B
:104E3000CD476314F700ED4799A20327C4FE93877B
:104E400081816319F700032784FED1476314F700BB
:104E5000F14735A20327C4FE938781816319F700C8
:104E6000032784FED5476314F700F54709AA0327F3
:104E7000C4FE938781816319F700032784FED94715
:104E80006314F700F947E5A80327C4FE93878181DF
:104E90006319F700032784FEDD476314F700FD471D
:104EA000F9A80327C4FE93878181631AF7000327BB
:104EB00084FEE1476315F70093070002C9A00327AA
:104EC000C4FE93878181631AF700032784FEE547B8
:104ED0006315F700930710025DA00327C4FE9387B4
:104EE0008181631AF700032784FEE9476315F70001
:104EF0009307200269A00327C4FE93878181631A68
:104F0000F700032784FEED476315F700930730028F
:104F1000BDA00327C4FE93878181631AF70003278E
:104F200084FEF1476315F7009307400289A8032721
:104F3000C4FE938781816319F700032784FEF54738
:104F40006314F700ED4725A80327C4FE93878181EA
:104F50006319F700032784FEF9476314F700F1474C
:104F600039A80327C4FE938781816319F7000327BB
:104F700084FEFD476314F700F54711A081473E8585
:104F8000724405618280797106D622D40018232EDE
:104F9000A4FC232CB4FC0325C4FDEFF0FFC3AA87B7
:104FA0002326F4FE8327C4FE91079843832784FDBC
:104FB0008326C4FE9106D98F9CC281473E85B2509C
:104FC000225445618280797106D622D40018232E9E
:104FD000A4FC232CB4FC0325C4FDEFF0FFBFAA877B
:104FE0002326F4FE8327C4FE91079C43032784FDF8
:104FF0001347F7FFBA860327C4FE1107F58F1CC3BA
:1050000081473E85B250225445618280797106D62F
:1050100022D40018232EA4FC0325C4FDEFF0DFBB2F
:10502000AA872326F4FE8327C4FE9C433E85B25004
:10503000225445618280797106D622D40018232E2D
:10504000A4FC0325C4FDEFF03FB9AA872326F4FE94
:105050008327C4FEB1079C433E85B250225445616C
:105060008280797106D622D40018232EA4FC232C2A
:10507000B4FC0325C4FDEFF03FB6AA872326F4FE57
:105080008327C4FEA1079C43032784FD1347F7FF32
:10509000BA860327C4FE2107F58F1CC381473E85CE
:1050A000B250225445618280797106D622D400180C
:1050B000232EA4FC232CB4FC0325C4FDEFF0DFB1A8
:1050C000AA872326F4FE8327C4FEA10798438327DB
:1050D00084FD8326C4FEA106D98F9CC281473E85EC
:1050E000B250225445618280797106D622D40018CC
:1050F000232EA4FC232CB4FC0325C4FDEFF0DFAD6C
:10510000AA872326F4FE8327C4FEB107984383278A
:1051100084FD8326C4FEB106D98F9CC281473E859B
:10512000B250225445618280797106D622D400188B
:10513000232EA4FC232CB4FC0325C4FDEFF0DFA92F
:10514000AA872326F4FE8327C4FEB1079C430327C6
:1051500084FD1347F7FFBA860327C4FE3107F58F96
:105160001CC381473E85B2502254456182807971CB
:1051700006D622D40018232EA4FC232CB4FC03252D
:10518000C4FDEFF07FA5AA872326F4FE8327C4FE83
:10519000B1079843832784FD8326C4FEB106B98FE7
:1051A0009CC281473E85B25022544561828079710C
:1051B00006D622D40018232EA4FC232CB4FC232AC8
:1051C000C4FC0325C4FDEFF03FA1AA872326F4FE0B
:1051D0008327C4FE9387C7039C43032784FD13479B
:1051E000F7FFBA860327C4FE1307C703F58F1CC356
:1051F0008327C4FE938787039843832744FD832630
:10520000C4FE93868603D98F9CC281473E85B250E7
:10521000225445618280797106D622D40018232E4B
:10522000A4FC232CB4FC0325C4FDEFF0FF9AAA874D
:105230002326F4FE8327C4FE938787039C4303271A
:1052400084FD1347F7FFBA860327C4FE13078703BD
:10525000F58F1CC381473E85B25022544561828040
:10526000797106D622D40018232EA4FC232CB4FC7A
:10527000232AC4FC0325C4FDEFF01F96AA8723262A
:10528000F4FE032744FD9D4763E9E71C832744FDA3
:1052900013972700B7870120938787B0BA979C435D
:1052A00082878327C4FEE1079C43032784FD1347BD
:1052B000F7FFBA860327C4FE6107F58F1CC3832757
:1052C000C4FE938707029C43032784FD1347F7FF1F
:1052D000BA860327C4FE13070702F58F1CC3832772
:1052E000C4FE938787029C43032784FD1347F7FF7F
:1052F000BA860327C4FE13078702F58F1CC38327D2
:10530000C4FE938707039C43032784FD1347F7FFDD
:10531000BA860327C4FE13070703F58F1CC335AAFB
:105320008327C4FEE1079843832784FD8326C4FEB8
:10533000E106D98F9CC215A28327C4FE938707027A
:105340009843832784FD8326C4FE93860602D98F63
:105350009CC221A28327C4FEE1079843832784FDD2
:105360008326C4FEE106D98F9CC28327C4FE93879F
:1053700007029843832784FD8326C4FE9386060292
:10538000D98F9CC2D9A88327C4FE938787029843EC
:10539000832784FD8326C4FE93868602D98F9CC210
:1053A0006DA88327C4FE938707039843832784FD52
:1053B0008326C4FE93860603D98F9CC279A88327CF
:1053C000C4FE938787029843832784FD8326C4FE07
:1053D00093868602D98F9CC28327C4FE93870703D6
:1053E0009843832784FD8326C4FE93860603D98FC2
:1053F0009CC2A5A08327C4FEE1079843832784FDB0
:105400008326C4FEE106D98F9CC28327C4FE9387FE
:1054100007029843832784FD8326C4FE93860602F1
:10542000D98F9CC28327C4FE938787029843832722
:1054300084FD8326C4FE93868602D98F9CC283276F
:10544000C4FE938707039843832784FD8326C4FE05
:1054500093860603D98F9CC2010081473E85B250D6
:10546000225445618280797106D622D40018232EF9
:10547000A4FC232CB4FC232AC4FC0325C4FDEFF0B8
:10548000AFF5AA872326F4FE032744FD9D4763EA70
:10549000E714832744FD13972700B78701209387DC
:1054A00087B2BA979C4382878327C4FEF10798434B
:1054B000832784FD8326C4FEF106D98F9CC215A2E2
:1054C0008327C4FE938747029843832784FD83265E
:1054D000C4FE93864602D98F9CC221A28327C4FEB4
:1054E000F1079843832784FD8326C4FEF106D98FF4
:1054F0009CC28327C4FE938747029843832784FD79
:105500008326C4FE93864602D98F9CC2D9A88327DE
:10551000C4FE9387C7029843832784FD8326C4FE75
:105520009386C602D98F9CC26DA88327C4FE938739
:1055300047039843832784FD8326C4FE938646034E
:10554000D98F9CC279A88327C4FE9387C70298434A
:10555000832784FD8326C4FE9386C602D98F9CC20E
:105560008327C4FE938747039843832784FD8326BC
:10557000C4FE93864603D98F9CC2A5A08327C4FE90
:10558000F1079843832784FD8326C4FEF106D98F53
:105590009CC28327C4FE938747029843832784FDD8
:1055A0008326C4FE93864602D98F9CC28327C4FEFD
:1055B0009387C7029843832784FD8326C4FE93867E
:1055C000C602D98F9CC28327C4FE938747039843A2
:1055D000832784FD8326C4FE93864603D98F9CC20D
:1055E000010081473E85B2502254456182800111FD
:1055F00006CE22CC00102326A4FE0325C4FEEFF025
:105600000FE0AA873E85F24062440561828079718D
:1056100006D622D40018232EA4FC232CB4FC832508
:1056200084FD0325C4FDEFF02FE02326A4FE83278D
:10563000C4FE3E85B250225445618280011122CEC3
:1056400000102326A4FE0327C4FEB717008093870B
:1056500007A26315F700B737011029A80327C4FE76
:10566000B7170080938707A46315F700B7370210B8
:1056700011A081473E85724405618280011122CECE
:1056800000102326A4FE0327C4FEB71700809387CB
:1056900007A26317F700B70700809387874421A804
:1056A0000327C4FEB7170080938707A46314F7008D
:1056B000814711A081473E857244056182800111B6
:1056C00022CE00102326A4FE0327C4FEB7170080B5
:1056D000938707A26314F7008D4721A80327C4FE10
:1056E000B7170080938707A46314F700914711A0B0
:1056F00081473E85724405618280011122CE0010EF
:105700002326A4FE0327C4FEB7170080938707A2B1
:105710006317F700B7170080938787A739A8032777
:10572000C4FEB7170080938707A46317F700B71765
:105730000080938787A711A081473E857244056149
:105740008280011122CE00102326A4FE0327C4FE6E
:10575000B7170080938707A26315F70093878181AD
:1057600029A80327C4FEB7170080938707A46315F1
:10577000F7009387818111A081473E8572440561BE
:105780008280011122CE00102326A4FE0327C4FE2E
:10579000B7170080938707A26315F700B7070300C8
:1057A00029A80327C4FEB7170080938707A46315B1
:1057B000F700B707840011A081473E857244056158
:1057C0008280011122CE00102326A4FE0327C4FEEE
:1057D000B7170080938707A26315F700B707030088
:1057E00029A80327C4FEB7170080938707A4631571
:1057F000F700B707840011A081473E857244056118
:105800008280011106CE22CC00102326A4FE03259F
:10581000C4FEEFF0BFE6AA873E85F2406244056110
:105820008280011106CE22CC00102326A4FE03257F
:10583000C4FEEFF0DFE8AA87938707023E85F240B7
:10584000624405618280797106D622D40018232E25
:10585000A4FC0325C4FDEFF07FDEAA872326F4FE17
:105860008327C4FE9C4393C7F7FFFD8393F7F70F8D
:105870003E85B250225445618280797106D622D489
:105880000018232EA4FC232CB4FC0325C4FDEFF048
:10589000FFDAAA872326F4FE01000325C4FD65373D
:1058A000AA87E5DF8327C4FE032784FD98C38147C9
:1058B0003E85B250225445618280797106D622D449
:1058C0000018232EA4FC232CB4FC0325C4FDEFF008
:1058D000FFD6AA872326F4FE8327C4FE91079C43A4
:1058E0002324F4FE832784FE63D70700832784FDE7
:1058F0007D5798C301A8832784FE13F7F70F8327EA
:1059000084FD98C381473E85B25022544561828010
:10591000797122D60018232EA4FC8327C4FD2326E8
:10592000F4FE8327C4FEDC433E8532544561828009
:10593000797106D622D40018232EA4FC232CB4FCA3
:105940008327C4FD2326F4FE0325C4FDEFF01FCFFB
:10595000AA872324F4FE0325C4FDEFF01FDA2322D7
:10596000A4FE032784FD8327C4FED8C3832744FEF7
:10597000B1CB832744FE9C439C43032544FE82977E
:105980002320A4FE032704FE832784FDB347F702E8
:105990001387F7FF832784FEE10798C3832784FEDC
:1059A000A1079C43032784FE210793E717001CC32C
:1059B000832784FEB1079C43032784FE310793E7C6
:1059C00017001CC381473E85B25022544561828036
:1059D000397106DE22DC80002326A4FC8327C4FC68
:1059E0002326F4FE0325C4FCEFF05FC5AA87232419
:1059F000F4FE0325C4FCEFF05FD02322A4FE83272E
:105A000084FEA1079843832784FEA107BE86B707BB
:105A1000F9FFFD17F98F9CC2832784FEA1079843E5
:105A2000832784FEA107BE86C167D98F9CC201006F
:105A3000832784FED1079C43858BFDDB832784FE6F
:105A4000A1079C43898B99C3A54711A0A94723208F
:105A5000F4FE832744FE9C439C43032544FE829727
:105A6000232EA4FC032704FE8327C4FDB307F702FB
:105A70003E878327C4FEDC43B357F702232CF4FC94
:105A8000232A04FC39A00100832744FD8507232A2B
:105A9000F4FC832744FD032784FDE3C6E7FE0100F1
:105AA000F250625421618280797106D622D40018A6
:105AB000232EA4FC8327C4FD2326F4FE0327C4FE63
:105AC0008327C4FEDC43BE853A8549290100B250D4
:105AD000225445618280397106DE22DC8000232653
:105AE000A4FC2324B4FC8327C4FC2326F4FE032552
:105AF000C4FCEFF09FC02324A4FE0325C4FCEFF0F8
:105B00005FC42322A4FE832784FEB9C78327C4FE73
:105B1000376701201307079D98C78327C4FE032713
:105B2000C4FCD8C78327C4FEA107BE85032584FE15
:105B3000AD2A8327C4FE37670120130787AAD8CB75
